:020000040000FA
:04000000CDEF3FF011
:107F990001990EF66E7F0EF76E000EF86E0900F568
:107FA900CF01F00001E6EF3FF00F0EC112000E8C79
:107FB9006E000E8A6E938093508182F19E000E9519
:107FC9006E1200D9EC3FF081B0EDEF3FF0EFEF3FDB
:107FD900F0E8EF3FF00128016E050E0118D8A4F86A
:107FE900EF3FF0FAEF3FF0E8EF3FF0000E016EE8E7
:077FF900EF3FF000EF00F084
:020000040020DA
:08000000FFFFFFFFFFFFFFFF00
:020000040030CA
:0E000000000C181EFF8381FF0FC00FE00F40A1
:00000001FF
