:020000040000FA
:04000000AEEF3CF033
:10793D0001000000010F0EC112000E8C6E000E8AA8
:10794D006E938093508182F19E000E956E12003DD4
:10795D000EF66E790EF76E000EF86E00EE01F01059
:10796D00EE05F00900F5CFEEFFE550E150FAE1002C
:10797D000EF86E0001C3EF3CF0A1EC3CF081B0CAF3
:10798D00EF3CF0CCEF3CF0F2EF3CF00D0E086EFC4E
:10799D000EE82EFED7082EFCD70528056E050E0520
:1079AD0018D8A4DCEF3CF0DEEF3CF0F2EF3CF00138
:1079BD000E056EF2EF3CF044EC3FF0C5EF3CF011DC
:1079CD00EC3DF0C5EF3CF088EC3EF0C5EF3CF0CC63
:1079DD00EC3DF0C5EF3CF00550086E096A0950000A
:1079ED000AD8B4FCEF3CF0C5EF3CF00850010AD8C2
:1079FD00B4E2EF3CF0030AD8B4E6EF3CF0010AD84C
:107A0D00B4EAEF3CF0070AD8B4EEEF3CF0C5EF3C1A
:107A1D00F000EF00F08C680104021003100410D880
:107A2D00A41BEF3DF01DEF3DF037EF3DF0030E07CA
:107A3D006E8A0E066E560EE82EFED7062EFCD70762
:107A4D002EFAD7000E8C6E030E076E8A0E066E563A
:107A5D000EE82EFED7062EFCD7072EFAD79DEF3D4A
:107A6D00F0020E0118021003100410D8A441EF3DCE
:107A7D00F043EF3DF05DEF3DF0020E076E450E0653
:107A8D006EAA0EE82EFED7062EFCD7072EFAD700CB
:107A9D000E8C6E020E076E450E066EAA0EE82EFEB9
:107AAD00D7062EFCD7072EFAD79DEF3DF0030E011A
:107ABD0018021003100410D8A467EF3DF069EF3DD4
:107ACD00F07DEF3DF0A30E066E550EE82EFED706A7
:107ADD002EFCD700F0000E8C6EA30E066E550EE830
:107AED002EFED7062EFCD700F09DEF3DF0040E01C3
:107AFD0018021003100410D8A487EF3DF089EF3D54
:107B0D00F09DEF3DF0410E066EEE0EE82EFED7060F
:107B1D002EFCD700D0000E8C6E410E066EEE0EE8D8
:107B2D002EFED7062EFCD700D09DEF3DF081B2A2E0
:107B3D00EF3DF0A4EF3DF0CBEF3DF00D0E066EFCEA
:107B4D000EE82EFED7062EFCD7010E0124016E0085
:107B5D000E0220026E000E0320036E000E042004A0
:107B6D006E050E0118021003100410D8A4C1EF3DCC
:107B7D00F0C3EF3DF0CBEF3DF0010E016E000E02B4
:107B8D006E000E036E000E046E1200990E8C6E01C7
:107B9D0004021003100410D8A4D7EF3DF0D9EF3D27
:107BAD00F0F3EF3DF0030E076E8A0E066E560EE8EB
:107BBD002EFED7062EFCD7072EFAD7000E8C6E039D
:107BCD000E076E8A0E066E560EE82EFED7062EFC9A
:107BDD00D7072EFAD759EF3EF0020E011802100307
:107BED00100410D8A4FDEF3DF0FFEF3DF019EF3E6E
:107BFD00F0020E076E450E066EAA0EE82EFED70693
:107C0D002EFCD7072EFAD7000E8C6E020E076E458E
:107C1D000E066EAA0EE82EFED7062EFCD7072EFAFC
:107C2D00D759EF3EF0030E0118021003100410D8BF
:107C3D00A423EF3EF025EF3EF039EF3EF0A30E0604
:107C4D006E550EE82EFED7062EFCD700F0000E8CDA
:107C5D006EA30E066E550EE82EFED7062EFCD7002F
:107C6D00F059EF3EF0040E0118021003100410D865
:107C7D00A443EF3EF045EF3EF059EF3EF0410E06C6
:107C8D006EEE0EE82EFED7062EFCD700D0000E8C21
:107C9D006E410E066EEE0EE82EFED7062EFCD700B8
:107CAD00D059EF3EF081B25EEF3EF060EF3EF087CF
:107CBD00EF3EF00D0E066EFC0EE82EFED7062EFCE6
:107CCD00D7010E0124016E000E0220026E000E037C
:107CDD0020036E000E0420046E050E011802100321
:107CED00100410D8A47DEF3EF07FEF3EF087EF3EFD
:107CFD00F0010E016E000E026E000E036E000E04FA
:107D0D006E1200660E8C6E0104021003100410D862
:107D1D00A493EF3EF095EF3EF0AFEF3EF0030E076C
:107D2D006E8A0E066E560EE82EFED7062EFCD7076F
:107D3D002EFAD7000E8C6E030E076E8A0E066E5647
:107D4D000EE82EFED7062EFCD7072EFAD715EF3FDD
:107D5D00F0020E0118021003100410D8A4B9EF3E62
:107D6D00F0BBEF3EF0D5EF3EF0020E076E450E066E
:107D7D006EAA0EE82EFED7062EFCD7072EFAD700D8
:107D8D000E8C6E020E076E450E066EAA0EE82EFEC6
:107D9D00D7062EFCD7072EFAD715EF3FF0030E01AD
:107DAD0018021003100410D8A4DFEF3EF0E1EF3EEF
:107DBD00F0F5EF3EF0A30E066E550EE82EFED7063B
:107DCD002EFCD700F0000E8C6EA30E066E550EE83D
:107DDD002EFED7062EFCD700F015EF3FF0040E0156
:107DED0018021003100410D8A4FFEF3EF001EF3F6E
:107DFD00F015EF3FF0410E066EEE0EE82EFED706A3
:107E0D002EFCD700D0000E8C6E410E066EEE0EE8E5
:107E1D002EFED7062EFCD700D015EF3FF081B21AFB
:107E2D00EF3FF01CEF3FF043EF3FF00D0E066EFC01
:107E3D000EE82EFED7062EFCD7010E0124016E0092
:107E4D000E0220026E000E0320036E000E042004AD
:107E5D006E050E0118021003100410D8A439EF3F5F
:107E6D00F03BEF3FF043EF3FF0010E016E000E02CD
:107E7D006E000E036E000E046E1200AA0E8C6E01C3
:107E8D0004021003100410D8A44FEF3FF051EF3F40
:107E9D00F06BEF3FF0030E076E8A0E066E560EE87E
:107EAD002EFED7062EFCD7072EFAD7000E8C6E03AA
:107EBD000E076E8A0E066E560EE82EFED7062EFCA7
:107ECD00D7072EFAD7D1EF3FF0020E01180210039B
:107EDD00100410D8A475EF3FF077EF3FF091EF3F0E
:107EED00F0020E076E450E066EAA0EE82EFED706A0
:107EFD002EFCD7072EFAD7000E8C6E020E076E459C
:107F0D000E066EAA0EE82EFED7062EFCD7072EFA09
:107F1D00D7D1EF3FF0030E0118021003100410D853
:107F2D00A49BEF3FF09DEF3FF0B1EF3FF0A30E06A6
:107F3D006E550EE82EFED7062EFCD700F0000E8CE7
:107F4D006EA30E066E550EE82EFED7062EFCD7003C
:107F5D00F0D1EF3FF0040E0118021003100410D8F9
:107F6D00A4BBEF3FF0BDEF3FF0D1EF3FF0410E0668
:107F7D006EEE0EE82EFED7062EFCD700D0000E8C2E
:107F8D006E410E066EEE0EE82EFED7062EFCD700C5
:107F9D00D0D1EF3FF081B2D6EF3FF0D8EF3FF0FFF9
:107FAD00EF3FF00D0E066EFC0EE82EFED7062EFCF2
:107FBD00D7010E0124016E000E0220026E000E0389
:107FCD0020036E000E0420046E050E01180210032E
:107FDD00100410D8A4F5EF3FF0F7EF3FF0FFEF3F9F
:107FED00F0010E016E000E026E000E036E000E0407
:037FFD006E120001
:020000040020DA
:08000000FFFFFFFFFFFFFFFF00
:020000040030CA
:0E000000000C181EFF8381FF0FC00FE00F40A1
:00000001FF
