:020000040000FA
:060000000A128A11FC2F18
:100F8000F101CB2F0130F0007008F1071030F000B4
:100F9000F00BC82F0000831203130618D02FD12F97
:100FA000D72FC8307102031CD62FD72FC22F013084
:100FB0000800FF308316031386008801013081008A
:100FC00083120618E42FE52FE02F0A128A11C0279A
:100FD0000A128A11003A0319EE2FEF2FF42FFE3078
:100FE000831203138800E02FFF308312031388005D
:100FF000E02F0A128A11002883010A128A11D92FC0
:02400E00713F00
:00000001FF
