:020000040000FA
:04000000C1EF05F057
:10080000002A2A2050525545424120554E4F202A59
:100810002A002A2A2050525545424120444F532055
:100820002A2A0000056EF00E8316F00E9516959C90
:10083000959A95988C9C8C9A8C98B9EC05F0300E12
:1008400061EC05F000D000D000F0300E61EC05F056
:1008500000D000D000F0320E61EC05F03EEC05F067
:100860000009D8A436EF04F038EF04F02EEF04F0BE
:100870003EEC05F00009D8A440EF04F042EF04F08C
:1008800038EF04F0055061EC05F03EEC05F000098E
:10089000D8A44DEF04F04FEF04F045EF04F0080E3C
:1008A00061EC05F03EEC05F00009D8A45AEF04F025
:1008B0005CEF04F052EF04F00F0E61EC05F03EEC3B
:1008C00005F00009D8A467EF04F069EF04F05FEFCA
:1008D00004F0010E61EC05F03EEC05F00009D8A42F
:1008E00074EF04F076EF04F06CEF04F0040E61ECAA
:1008F00005F03EEC05F00009D8A481EF04F083EF89
:1009000004F079EF04F0800EC3EC04F0120098ECD0
:1009100005F0000E036E000E026E000E056E000E56
:10092000046E80EC05F0010E026E080E036E19ECE9
:1009300005F00D0E076EAF0E066EB60EE82EFED752
:10094000062EFCD7072EFAD700D0000E036E010E3C
:10095000026E000E056E000E046E80EC05F0120EA5
:10096000026E080E036E19EC05F00D0E076EAF0E49
:10097000066EB60EE82EFED7062EFCD7072EFAD747
:1009800000D000EF00F0046EF00E9516F00E831606
:100990000450016E026A800E0112000E0212040E53
:1009A000036E023402320132032ED1EF04F0015003
:1009B0000F0B83128C9C8C9AACEC05F08C88ACEC01
:1009C00005F08C98F00E831604500F0B8312ACECDC
:1009D00005F08C88ACEC05F08C980F0E9512120087
:1009E000016E3EEC05F00009D8A4F9EF04F0FBEF2E
:1009F00004F0F1EF04F0F00E9516F00E83160138B6
:100A00000F0B0F0B83128C8A8C9CACEC05F08C883E
:100A1000ACEC05F08C98F00E831601500F0B83128E
:100A2000ACEC05F08C88ACEC05F08C980F0E9512B0
:100A300012002FEF05F03EEC05F00009D8A423EFDB
:100A400005F025EF05F01BEF05F002C0F6FF03C02F
:100A5000F7FF0800F550F0EC04F0024A032A02C048
:100A6000F6FF03C0F7FF0800F5500009D8A43BEFDC
:100A700005F03DEF05F01BEF05F012008C8C8C9A11
:100A8000ACEC05F08C88ACEC05F083A64AEF05F0E1
:100A90004CEF05F057EF05F08C98ACEC05F08C8826
:100AA000ACEC05F08C988C9C010E60EF05F08C98F6
:100AB000ACEC05F08C88ACEC05F08C988C9C000EAE
:100AC0001200016EF00E9516F00E831601380F0B12
:100AD0000F0B83128C9C8C9AACEC05F08C88ACECE0
:100AE00005F08C98F00E831601500F0B8312ACECBE
:100AF00005F08C88ACEC05F08C980F0E9512120066
:100B000003BE8BEF05F0035008E10204D8A08BEF81
:100B100005F08DEF05F093EF05F00450C00F61EC88
:100B200005F097EF05F00450800F61EC05F012001E
:100B3000280E12EC04F03EEC05F00009D8A4A3EF57
:100B400005F0A5EF05F09BEF05F0060E61EC05F052
:100B50000C0E61EC05F0120000F000F000F000F067
:100B600000F000F000F000F000F000F000F000F005
:100B70001200620E016E660EE82EFED7012EFCD723
:100B80001200000EF86E080EF76E000187EF04F0F9
:020000040020DA
:08000000FFFFFFFFFFFFFFFF00
:020000040030CA
:0E000000040C191EFF8381FF0FC00FE00F409C
:00000001FF
