:020000040000FA
:04000000BFEF05F059
:10080000002A2A2050525545424120554E4F202A59
:100810002A002A2A2050525545424120444F532055
:100820002A2A0000056EF00E8316F00E9516959C90
:10083000959A95988C9C8C9A8C98B7EC05F0300E14
:100840005FEC05F000D000D000F0300E5FEC05F05A
:1008500000D000D000F0320E5FEC05F03CEC05F06B
:100860000009D8A436EF04F038EF04F02EEF04F0BE
:100870003CEC05F00009D8A440EF04F042EF04F08E
:1008800038EF04F005505FEC05F03CEC05F0000992
:10089000D8A44DEF04F04FEF04F045EF04F0080E3C
:1008A0005FEC05F03CEC05F00009D8A45AEF04F029
:1008B0005CEF04F052EF04F00F0E5FEC05F03CEC3F
:1008C00005F00009D8A467EF04F069EF04F05FEFCA
:1008D00004F0010E5FEC05F03CEC05F00009D8A433
:1008E00074EF04F076EF04F06CEF04F0040E5FECAC
:1008F00005F03CEC05F00009D8A481EF04F083EF8B
:1009000004F079EF04F0800EC1EC04F0120096ECD4
:1009100005F0000E036E000E026E000E056E000E56
:10092000046E7EEC05F0010E026E080E036E17ECED
:1009300005F0030E076E8A0E066E560EE82EFED7E1
:10094000062EFCD7072EFAD7000E036E010E026E9C
:10095000000E056E000E046E7EEC05F0120E026EA7
:10096000080E036E17EC05F0030E076E8A0E066E76
:10097000560EE82EFED7062EFCD7072EFAD700EF2C
:1009800000F0046EF00E9516F00E83160450016E02
:10099000026A800E0112000E0212040E036E02346F
:1009A00002320132032ECFEF04F001500F0B8312FD
:1009B0008C9C8C9AAAEC05F08C88AAEC05F08C989B
:1009C000F00E831604500F0B8312AAEC05F08C88EE
:1009D000AAEC05F08C980F0E95121200016E3CECFB
:1009E00005F00009D8A4F7EF04F0F9EF04F0EFEFF9
:1009F00004F0F00E9516F00E831601380F0B0F0B56
:100A000083128C8A8C9CAAEC05F08C88AAEC05F0E9
:100A10008C98F00E831601500F0B8312AAEC05F090
:100A20008C88AAEC05F08C980F0E951212002DEF11
:100A300005F03CEC05F00009D8A421EF05F023EF08
:100A400005F019EF05F002C0F6FF03C0F7FF08003C
:100A5000F550EEEC04F0024A032A02C0F6FF03C090
:100A6000F7FF0800F5500009D8A439EF05F03BEF77
:100A700005F019EF05F012008C8C8C9AAAEC05F0A9
:100A80008C88AAEC05F083A648EF05F04AEF05F044
:100A900055EF05F08C98AAEC05F08C88AAEC05F0CF
:100AA0008C988C9C010E5EEF05F08C98AAEC05F0FA
:100AB0008C88AAEC05F08C988C9C000E1200016EBC
:100AC000F00E9516F00E831601380F0B0F0B8312E4
:100AD0008C9C8C9AAAEC05F08C88AAEC05F08C987A
:100AE000F00E831601500F0B8312AAEC05F08C88D0
:100AF000AAEC05F08C980F0E9512120003BE89EF38
:100B000005F0035008E10204D8A089EF05F08BEF4F
:100B100005F091EF05F00450C00F5FEC05F095EF84
:100B200005F00450800F5FEC05F01200280E12EC67
:100B300004F03CEC05F00009D8A4A1EF05F0A3EF08
:100B400005F099EF05F0060E5FEC05F00C0E5FEC7A
:100B500005F0120000F000F000F000F000F000F0EE
:100B600000F000F000F000F000F000F01200620E63
:100B7000016E660EE82EFED7012EFCD71200000E85
:0C0B8000F86E080EF76E000187EF04F01D
:020000040020DA
:08000000FFFFFFFFFFFFFFFF00
:020000040030CA
:0E000000000C191EFF8381FF0FC00FE00F40A0
:00000001FF
