:020000040000FA
:040000005AEF3FF084
:107E82003F0006005B004F0066006D007D000700AA
:107E92007F0067000F0EC112000E896E000E8C6EFD
:107EA200000E926E000E956E938093829388F19EDF
:107EB2001200820EF66E7E0EF76E000EF86E00EE67
:107EC20001F010EE14F00900F5CFEEFFE550E1509D
:107ED200FAE1166A156A00016FEF3FF04BEC3FF0D2
:107EE20081B876EF3FF078EF3FF0ABEF3FF089805B
:107EF2008992000E166E000E156ED8901534D96E4A
:107F02001634DA6E010ED926000EDA22DF50836EA5
:107F12000D0E186EAF0E176EB60EE82EFED7172E88
:107F2200FCD7182EFAD700D0154A162A16BEA3EF90
:107F32003FF0165009E10A0E155CD8A0A3EF3FF0FE
:107F4200A5EF3FF07EEF3FF0000E836E899089929D
:107F520071EF3FF081B0B0EF3FF0B2EF3FF0DFEFF3
:107F62003FF089908982000E166E090E156ED89028
:107F72001534D96E1634DA6E010ED926000EDA22C5
:107F8200DF50836E0D0E186EAF0E176EB60EE82E12
:107F9200FED7172EFCD7182EFAD700D01506D8A078
:107FA200160616BED9EF3FF0D7EF3FF0B8EF3FF01D
:107FB200000E836E8990899271EF3FF081B2E4EFF7
:107FC2003FF0E6EF3FF0FCEF3FF08980898209C085
:107FD20083FF0D0E186EAF0E176EB60EE82EFED78B
:107FE200172EFCD7182EFAD700D0000E836E899078
:0E7FF200899271EF3FF071EF3FF000EF00F069
:020000040020DA
:08000000FFFFFFFFFFFFFFFF00
:020000040030CA
:0E000000000C181EFF8381FF0FC00FE00F40A1
:00000001FF
