:020000040000FA
:04000000C3EF3FF01B
:107F86000001D8EF3FF00F0EC112000E896E000EF1
:107F96008A6E000E8B6E000E8C6E000E8D6E9292A7
:107FA60093929492959296921200C6EC3FF080823C
:107FB60081828282838284821A0E026E5E0E016E36
:107FC6006E0EE82EFED7012EFCD7022EFAD700D071
:107FD600809281928292839284921A0E026E5E0E33
:107FE600016E6E0EE82EFED7012EFCD7022EFAD7B2
:0A7FF60000D0DAEF3FF000EF00F0DA
:020000040020DA
:08000000FFFFFFFFFFFFFFFF00
:020000040030CA
:0E000000040C181EFF8381FF0FC00FE00F409D
:00000001FF
